:10087F002D2D494E464F313A3132333435362D2DE9
:10088F00002D2D494E464F323A3635343332312D05
:02089F002D002A
:0400030002250000D2
:10058D0012079B1208A11207637F011208FB7F025D
:10059D001208FBD2AF7BFF7A08797F7D017F0112B4
:1005AD0008047BFF7A0879907D017F021208047F91
:1005BD0001120926E523D3940040F4D523F1E52259
:1005CD00D39400402DE4F508F509C3E5099522748F
:1005DD0080F8650898501B74002509F58274003564
:1005ED0008F583E0FF12085C0509E50970DC0508D4
:0705FD0080D8E4F52280B86C
:03000B00020936B1
:0D093600C0E00526E52670020525D0E03260
:10083800535443313546324B3630533220554152AA
:10084800543120546573742050726772616D6D6500
:04085800210D0A0064
:10079B00750A40750B02750F00750EC2750D01754C
:1007AB000C00751101E4F512751301F51475154064
:1007BB00F516FB7A00790A7F011202107BFF7A088B
:0507CB00793802000E68
:1008A100E4F50AF50B750C01F50D750E01750F03D5
:0F08B1007510E8751101FB7A00790AFF0203AC9C
:0F0926007DA57C06ED1D70011C144C70F7DFF1F0
:01093500229F
:10091400E4FFFE30A70B0FBF00010EBE13F5BF8826
:01092400F2E0
:0109250022AF
:1007D000C2918FA000000000000000000000000097
:1007E0000000000000000000D290000000000000A7
:1007F0000000000000000000000000000000C290A7
:0408000075A0FF22BE
:1006C700AD07C292D29175A0FF00000000000000A4
:1006D70000000000000000000000000000D290129F
:1006E7000914C290C2918DA0000000000000000014
:1006F700000000000000000000000000D290000091
:1007070000000000000000000000000000000000E2
:080717000000C29075A0FF2252
:10066D00AD07C292D29175A0FF00000000000000FE
:10067D0000000000000000000000000000D29012F9
:10068D000914C290C291D2928DA00000000000000A
:10069D000000000000000000000000000000D290EB
:1006AD00000000000000000000000000000000003D
:0A06BD0000000000C29075A0FF22AB
:10076300C290C292C2917F641209267F301207D0D1
:100773007F0A1209267F301207D07F0A1209267FCB
:10078300381207D07F061209267F011206C77F069B
:080793001206C77F0C0206C725
:1008DF00AC05AB07BB0108EC144480FF1206C7BB85
:0C08EF000209EC243F4480FF1206C722DF
:1008FB00EF6015D3940250107D011208DFE4FC7FEA
:08090B002012066D0CBC10F770
:0109130022C1
:1008C000AE07AA03EE6017D394025012ED600FD367
:0F08D0009410500AAF061208DFAF0212066D2215
:100804008F0A8D0B8B0C8A0D890EAB0CAA0DA90EC9
:10081400120026FB601DAD0BAF0A1208C0050BE5E4
:100824000BD39414500D7401250EF50EE4350DF51B
:040834000D80D7223A
:060210008B178A18891902
:10021600EF640160030203A9751E01F51FF520F5C1
:1002260021F522F523F5247F28900028E4F0A3DFAA
:10023600FC7F28900000E4F0A3DFFCAB17AA18A906
:1002460019120026D394C040037F022290000A129E
:10025600003FB40104D2BC8002C2BC120026FFE5F6
:1002660098543F4FF598EF64C06008EF6440600310
:1002760002032D9000021201AA7F007E607D547C4D
:10028600001200E08F1D8E1C8D1B8C1AE4FFFE7D74
:1002960001FCAB1DAA1CA91BA81AC31201724003BC
:1002A6007F0222C3E4951DF51DE4951CF51C74011F
:1002B600951BF51BE4951AF51AAB17AA18A9199000
:1002C600000112003FFB6401702CC28E538EFE5358
:1002D60089BF5389CF438E40AF1DAE1CAD1BAC1AF0
:1002E60078081201838F8D851D8BC2AB5389BF534E
:1002F6008FFDD28E8065EB64027029538EEF438E9C
:1003060001538EF7438E04AF1DAE1CAD1BAC1A789D
:10031600081201838FD6851DD753AFFB538EF74343
:100326008E1080377F0222AB17AA18A91912002651
:10033600FF701390000812003FB40105438E208021
:100346001A538EDF8015EFB4801190000812003F1B
:10035600B40105438780800353877FAB17AA18A98A
:100366001990000912003FB40104D2AC8002C2AC5D
:1003760090000712003FB40104D29C8002C29C90F8
:10038600000B12003F54C0FFE5A2543F4FF5A29068
:10039600000C12003FB4010543971080035397EFFA
:0503A6007F00227F0230
:0103AB00222F
:10085C0074282520F582E43400F583EFF00520E5BB
:10086C0020C394284003E4F520E52170057521018F
:03087C00D29922EC
:10000E00120026FF600C12085C740129F9E43AFA1A
:03001E0080EE224F
:03002300020604CE
:10060400C0E0C083C082C0D075D000C00730982439
:10061400C298E524701EE522C39428400375220085
:10062400AF22052274002FF582E43400F583E599A6
:10063400F0752305309927C299E51F6520601C7465
:1006440028251FF582E43400F583E0F599051FE5BC
:100654001FC394284008751F008003752100D0072C
:09066400D0D0D082D083D0E03266
:1003AC008B128A138914EFD3940240037F0122EF3E
:1003BC0060030204FEC28CAB12AA13A914900002B3
:1003CC0012003FB40104D2A98002C2A9900001120C
:1003DC00003FB40104D2B98002C2B9120026FED388
:1003EC00940340037F0222E58954FC4EF58990006A
:1003FC000312003FFFB40103538E7FEF7003438E53
:10040C0080EFB4020543890480035389FBAB12AA25
:10041C0013A91490000412003FB40105438F01800E
:10042C0003538FFE90000312003F70529000051290
:10043C00006CAEF0FBAA06E4F9F8FF7E807D517CDF
:10044C000112071FC374FF9FF58AAB12AA13A914DC
:10045C0090000512006CAEF0FBAA06E4F9F8FF7EE2
:10046C00807D517C0112071FC374FF9FFF74FF9E98
:10047C00FEE49DFDE49CFC78081201968F8CAB1277
:10048C00AA13A91490000312003F6401705090004D
:10049C000512006CAEF0FBAA06E4F9F8FF7E207D95
:1004AC001CFC12071FC374FF9FF58AAB12AA13A979
:1004BC001490000512006CAEF0FBAA06E4F9F8FFEC
:1004CC007E207D1CFC12071FC374FF9FFF74FF9ED0
:1004DC00FEE49DFDE49CFC78081201968F8CAB1217
:1004EC00AA13A91490000712003FB40102D28C7F0A
:0504FC0000227F022236
:03000000020501F5
:0C050100787FE4F6D8FD758126020548DD
:10002600BB010689828A83E0225002E722BBFE02D8
:09003600E32289828A83E493220B
:10003F00BB010CE58229F582E5833AF583E0225076
:10004F0006E92582F8E622BBFE06E92582F8E222C0
:0D005F00E58229F582E5833AF583E49322DA
:10006C00BB0110E58229F582E5833AF583E0F5F0D2
:10007C00A3E0225009E92582F886F008E622BBFEAF
:10008C000AE92582F8E2F5F008E222E5832AF583F5
:08009C00E993F5F0A3E99322BA
:1000A40075F008758200EF2FFFEE33FECD33CDCC13
:1000B40033CCC58233C5829BED9AEC99E582984096
:1000C4000CF582EE9BFEED9AFDEC99FC0FD5F0D673
:1000D400E4CEFBE4CDFAE4CCF9A88222B800C1B99D
:1000E4000059BA002DEC8BF084CFCECDFCE5F0CBDB
:1000F400F97818EF2FFFEE33FEED33FDEC33FCEB14
:1001040033FB10D703994004EB99FB0FD8E5E4F9CE
:10011400FA227818EF2FFFEE33FEED33FDEC33FCBB
:10012400C933C910D7059BE99A4007EC9BFCE99AAF
:10013400F90FD8E0E4C9FAE4CCFB2275F010EF2FF4
:10014400FFEE33FEED33FDCC33CCC833C810D707F4
:100154009BEC9AE899400AED9BFDEC9AFCE899F82F
:0E0164000FD5F0DAE4CDFBE4CCFAE4C8F922C2
:10071F00C2D5E830E70FB2D5E4C39BFBE49AFAE405
:10072F0099F9E498F8EC30E717B2D5120755120093
:10073F00E0E4C39BFBE49AFAE499F9E498F88003A8
:10074F001200E030D50DE4C39FFFE49EFEE49DFD53
:04075F00E49CFC22F8
:10017200EB9FF5F0EA9E42F0E99D42F0E89C45F0E3
:01018200225A
:10018300E8600FECC313FCED13FDEE13FEEF13FF5A
:03019300D8F1227E
:10019600E86010ECA2E713FCED13FDEE13FEEF137F
:0401A600FFD8F0226C
:1001AA00BB010DE58229F582E5833AF5830201E771
:1001BA005007E92582F80201DABBFE07E92582F831
:1001CA000201F3E58229F582E5833AF5830202000A
:10050D0002058DE493A3F8E493A34003F68001F272
:10051D0008DFF48029E493A3F85407240CC8C333EF
:10052D00C4540F4420C8834004F456800146F6DFBE
:10053D00E4800B0102040810204080900003E47E4B
:10054D00019360BCA3FF543F30E509541FFEE493B3
:10055D00A360010ECF54C025E060A840B8E493A37A
:10056D00FAE493A3F8E493A3C8C582C8CAC583CAA5
:10057D00F0A3C8C582C8CAC583CADFE9DEE780BE5D
:0100070000F8
:0D01DA00E6FB08E6F908E6FA08E6CBF82295
:0C01E700E0F8A3E0F9A3E0FAA3E0FB229B
:0D01F300E2FB08E2F908E2FA08E2CBF8228C
:10020000E493F8740193F9740293FA740393FB2254
:00000001FF
