:10099D002D2D494E464F313A3132333435362D2DCA
:1009AD00002D2D494E464F323A3635343332312DE6
:0209BD002D000B
:0405030002260000CC
:10067D0012094C1209BF1208AC7F01120A197F0230
:10068D00120A19C2AF7BFF7A09799D7D017F011294
:10069D0009187BFF7A0979AE7D017F021209187A5C
:1006AD0000794C1208697A0079CE1208697B007ABC
:1006BD000079727D0A12086DE524D3940040F9D5B6
:1006CD0024F6E523D39400402DE4F508F509C3E5A0
:1006DD000995237480F8650898501B74002509F559
:1006ED008274003508F583E0FF1209780509E509E4
:0B06FD0070DC050880D8E4F52380BD08
:040869007B007D0A89
:08086D008B0A8A0B890C8D0D2A
:10087500E4F50EF50FC3E50F950DE50E9400502236
:10088500AB0AAA0BA90C120026FF120978740125E0
:100895000CF50CE4350BF50B050FE50F70D7050EC0
:0608A50080D3E52170FC88
:0108AB00222A
:03000B00020A5492
:0D0A5400C0E00527E52770020526D0E0323E
:10094C00750A40750B02750F00750EC2750D017599
:10095C000C00751101E4F512751301F514F51575FC
:0C096C001601FB7A00790A7F01020210DC
:1009BF00E4F50AF50B750C01F50D750E01750F03B6
:0F09CF007510E8751101FB7A00790AFF0203AE7B
:0F0A44007DA57C06ED1D70011C144C70F7DFF1D1
:010A53002280
:100A3200E4FFFE30A70B0FBF00010EBE13F5BF8807
:010A4200F2C1
:010A43002290
:1008E400C2918FA000000000000000000000000082
:1008F4000000000000000000D29000000000000092
:100904000000000000000000000000000000C29091
:0409140075A0FF22A9
:1007CD00AD07C292D29175A0FF000000000000009D
:1007DD0000000000000000000000000000D2901298
:1007ED000A32C290C2918DA00000000000000000EE
:1007FD00000000000000000000000000D29000008A
:10080D0000000000000000000000000000000000DB
:08081D000000C29075A0FF224B
:10077300AD07C292D29175A0FF00000000000000F7
:1007830000000000000000000000000000D29012F2
:100793000A32C290C291D2928DA0000000000000E4
:1007A3000000000000000000000000000000D290E4
:1007B3000000000000000000000000000000000036
:0A07C30000000000C29075A0FF22A4
:1008AC00C290C292C2917F64120A447F301208E453
:1008BC007F0A120A447F301208E47F0A120A447F2E
:1008CC00381208E47F06120A447F011207CD7F0616
:0808DC001207CD7F0C0207CDCD
:1009FD00AC05AB07BB0108EC144480FF1207CDBB5F
:0C0A0D000209EC243F4480FF1207CD22B8
:100A1900EF6015D3940250107D011209FDE4FC7FAB
:080A2900201207730CBC10F74A
:010A310022A2
:1009DE00AE07AA03EE6017D394025012ED600FD348
:0F09EE009410500AAF061209FDAF0212077322D0
:100918008F0A8D0B8B0C8A0D890EAB0CAA0DA90EB4
:10092800120026FB601DAD0BAF0A1209DE050BE5B0
:100938000BD39414500D7401250EF50EE4350DF506
:040948000D80D72225
:060210008B178A18891902
:10021600EF640160030203AB751E01F51FF520F5BF
:1002260021F522F523F524F5257F28900028E4F012
:10023600A3DFFC7F28900000E4F0A3DFFCAB17AA45
:1002460018A919120026D394C040037F02229000F9
:100256000A12003FB40104D2BC8002C2BC120026BE
:10026600FFE598543F4FF598EF64C06008EF64408F
:10027600600302032F9000021201AA7F007E607DB8
:10028600547C001200E08F1D8E1C8D1B8C1AE4FF1F
:10029600FE7D01FCAB1DAA1CA91BA81AC312017284
:1002A60040037F0222C3E4951DF51DE4951CF51C51
:1002B6007401951BF51BE4951AF51AAB17AA18A934
:1002C6001990000112003FFB6401702CC28E538E00
:1002D600FE5389BF5389CF438E40AF1DAE1CAD1B65
:1002E600AC1A78081201838F8D851D8BC2AB53899A
:1002F600BF538FFDD28E8065EB64027029538EEF5B
:10030600438E01538EF7438E04AF1DAE1CAD1BAC5E
:100316001A78081201838FD6851DD753AFFB538EEB
:10032600F7438E1080377F0222AB17AA18A919123D
:100336000026FF701390000812003FB40105438E9B
:1003460020801A538EDF8015EFB4801190000812BA
:10035600003FB40105438780800353877FAB17AA0C
:1003660018A91990000912003FB40104D2AC80020A
:10037600C2AC90000712003FB40104D29C8002C2B6
:100386009C90000B12003F54C0FFE5A2543F4FF56E
:10039600A290000C12003FB401054397108003534E
:0703A60097EF7F00227F02A8
:0103AD00222D
:1009780074282520F582E43400F583EFF00521057D
:1009880020E520C394284003E4F520E5227005758E
:050998002201D29922AA
:10000E00120026FF600C120978740129F9E43AFAFD
:03001E0080EE224F
:03002300020708C9
:10070800C0E0C083C082C0D075D000C00730982434
:10071800C298E525701EE523C3942840037523007D
:10072800AF23052374002FF582E43400F583E5999F
:10073800F0752405309929C299E51F6520601E745B
:1007480028251FF582E43400F583E0F59915210585
:100758001FE51FC394284008751F008003752200F9
:0B076800D007D0D0D082D083D0E03288
:1003AE008B128A138914EFD3940240037F0122EF3C
:1003BE006003020500C28CAB12AA13A914900002AE
:1003CE0012003FB40104D2A98002C2A9900001120A
:1003DE00003FB40104D2B98002C2B9120026FED386
:1003EE00940340037F0222E58954FC4EF589900068
:1003FE000312003FFFB40103538E7FEF7003438E51
:10040E0080EFB4020543890480035389FBAB12AA23
:10041E0013A91490000412003FB40105438F01800C
:10042E0003538FFE90000312003F7052900005128E
:10043E00006CAEF0FBAA06E4F9F8FF7E807D517CDD
:10044E0001120825C374FF9FF58AAB12AA13A914D3
:10045E0090000512006CAEF0FBAA06E4F9F8FF7EE0
:10046E00807D517C01120825C374FF9FFF74FF9E8F
:10047E00FEE49DFDE49CFC78081201968F8CAB1275
:10048E00AA13A91490000312003F6401705090004B
:10049E000512006CAEF0FBAA06E4F9F8FF7E207D93
:1004AE001CFC120825C374FF9FF58AAB12AA13A970
:1004BE001490000512006CAEF0FBAA06E4F9F8FFEA
:1004CE007E207D1CFC120825C374FF9FFF74FF9EC7
:1004DE00FEE49DFDE49CFC78081201968F8CAB1215
:1004EE00AA13A91490000712003FB40102D28C7F08
:0504FE0000227F022234
:100507000A8C02000A000000F3FFFFFF08960300B1
:10051700A900000053FF0A3A53000A000000A2FF97
:10052700FFFF086052005E0000004FFF0A68650089
:100537000A00000090FFFFFF087C64000E01000026
:100547008DFE0ADF6A000A0000008BFFFFFF0832FA
:1005570069004D01000049FF0A286C000A000000ED
:1005670089FFFFFF08446B001200000082FF0A9E0C
:1005770066000A0000008FFFFFFF14B2630014003B
:10058700000088FF0000E8030000C80000004FF8E3
:100597000AA868000A0000008DFFFFFF08C6670071
:1005A7004B0000004DFE0A7262000A00000093FF34
:1005B700FFFF088461000B00000093FE0ACE46008F
:1005C7000A000000AFFFFFFF07D847003200000016
:1005D700860A4C6F470A00000086FFFFFF0A560C89
:0905E700000A000000E9FFFFFF1B
:030000000205F105
:0C05F100787FE4F6D8FD7581E80206383A
:10002600BB010689828A83E0225002E722BBFE02D8
:09003600E32289828A83E493220B
:10003F00BB010CE58229F582E5833AF583E0225076
:10004F0006E92582F8E622BBFE06E92582F8E222C0
:0D005F00E58229F582E5833AF583E49322DA
:10006C00BB0110E58229F582E5833AF583E0F5F0D2
:10007C00A3E0225009E92582F886F008E622BBFEAF
:10008C000AE92582F8E2F5F008E222E5832AF583F5
:08009C00E993F5F0A3E99322BA
:1000A40075F008758200EF2FFFEE33FECD33CDCC13
:1000B40033CCC58233C5829BED9AEC99E582984096
:1000C4000CF582EE9BFEED9AFDEC99FC0FD5F0D673
:1000D400E4CEFBE4CDFAE4CCF9A88222B800C1B99D
:1000E4000059BA002DEC8BF084CFCECDFCE5F0CBDB
:1000F400F97818EF2FFFEE33FEED33FDEC33FCEB14
:1001040033FB10D703994004EB99FB0FD8E5E4F9CE
:10011400FA227818EF2FFFEE33FEED33FDEC33FCBB
:10012400C933C910D7059BE99A4007EC9BFCE99AAF
:10013400F90FD8E0E4C9FAE4CCFB2275F010EF2FF4
:10014400FFEE33FEED33FDCC33CCC833C810D707F4
:100154009BEC9AE899400AED9BFDEC9AFCE899F82F
:0E0164000FD5F0DAE4CDFBE4CCFAE4C8F922C2
:10082500C2D5E830E70FB2D5E4C39BFBE49AFAE4FE
:1008350099F9E498F8EC30E717B2D512085B120085
:10084500E0E4C39BFBE49AFAE499F9E498F88003A1
:100855001200E030D50DE4C39FFFE49EFEE49DFD4C
:04086500E49CFC22F1
:10017200EB9FF5F0EA9E42F0E99D42F0E89C45F0E3
:01018200225A
:10018300E8600FECC313FCED13FDEE13FEEF13FF5A
:03019300D8F1227E
:10019600E86010ECA2E713FCED13FDEE13FEEF137F
:0401A600FFD8F0226C
:1001AA00BB010DE58229F582E5833AF5830201E771
:1001BA005007E92582F80201DABBFE07E92582F831
:1001CA000201F3E58229F582E5833AF5830202000A
:1005FD0002067DE493A3F8E493A34003F68001F291
:10060D0008DFF48029E493A3F85407240CC8C333FE
:10061D00C4540F4420C8834004F456800146F6DFCD
:10062D00E4800B0102040810204080900503E47E55
:10063D00019360BCA3FF543F30E509541FFEE493C2
:10064D00A360010ECF54C025E060A840B8E493A389
:10065D00FAE493A3F8E493A3C8C582C8CAC583CAB4
:10066D00F0A3C8C582C8CAC583CADFE9DEE780BE6C
:0105F000000A
:0D01DA00E6FB08E6F908E6FA08E6CBF82295
:0C01E700E0F8A3E0F9A3E0FAA3E0FB229B
:0D01F300E2FB08E2F908E2FA08E2CBF8228C
:10020000E493F8740193F9740293FA740393FB2254
:00000001FF
