:100A7E002D2D494E464F313A3132333435362D2DE8
:100A8E00002D2D494E464F323A3635343332312D04
:020A9E002D0029
:04050300021C0000D6
:1005F100120A07120AA0120A331209677F01120AAE
:10060100FA7F02120AFAD2AF7BFF7A0A797E7D0164
:100611007F011209D37BFF7A0A798F7D017F021254
:1006210009D37A00794D1209247A0079CF1209246D
:100631007B007A0079737D0A1209287B007A0079A0
:10064100A97D0A1209287B007A0079577D0A1209CF
:100651002830001EC200900052E0FF900068E0FECA
:1006610004F0EE7C00540F2458F582EC3400F5833D
:10067100EFF02002DC900068E0FF900069E06F601D
:10068100D0E0FF04F07E00EF540F2458F582EE34E1
:0C06910000F583E0900054F0D20280B528
:040924007B007D0ACD
:080928008B088A09890A8D0B76
:10093000E4F50CF50DC3E50D950BE50C9400502284
:10094000AB08AA09A90A120026FF120A5974012548
:100950000AF50AE43509F509050DE50D70D7050C12
:0609600080D3E52470FCC9
:01096600226E
:100A0700750840750902750D00750CC2750B0175E7
:100A17000A00750F01E4F510751101F51275134001
:0C0A2700F514FB7A0079087F0102021030
:100AA000E4F508F509750A01F50B750C01750D03E0
:0F0AB000750EE8750F01FB7A007908FF0203AE9F
:0F0B25007DA57C06ED1D70011C144C70F7DFF1EF
:010B3400229E
:100B1300E4FFFE30A70B0FBF00010EBE13F5BF8825
:010B2300F2DF
:010B240022AE
:10099F00C2918FA0000000000000000000000000C6
:1009AF000000000000000000D290000000000000D6
:1009BF000000000000000000000000000000C290D6
:0409CF0075A0FF22EE
:10088800AD07C292D29175A0FF00000000000000E1
:1008980000000000000000000000000000D29012DC
:1008A8000B13C290C2918DA0000000000000000050
:1008B800000000000000000000000000D2900000CE
:1008C8000000000000000000000000000000000020
:0808D8000000C29075A0FF2290
:10082E00AD07C292D29175A0FF000000000000003B
:10083E0000000000000000000000000000D2901236
:10084E000B13C290C291D2928DA000000000000046
:10085E000000000000000000000000000000D29028
:10086E00000000000000000000000000000000007A
:0A087E0000000000C29075A0FF22E8
:10096700C290C292C2917F64120B257F3012099FF9
:100977007F0A120B257F3012099F7F0A120B257FF2
:100987003812099F7F06120B257F011208887F0600
:080997001208887F0C02088899
:100ADE00AC05AB07BB0108EC144480FF120888BBC1
:0C0AEE000209EC243F4480FF120888221B
:100AFA00EF6015D3940250107D01120ADEE4FC7FE8
:080B0A002012082E0CBC10F7AC
:010B120022C0
:100ABF00AE07AA03EE6017D394025012ED600FD366
:0F0ACF009410500AAF06120ADEAF0212082E2250
:1009D3008F088D098B0A8A0B890CAB0AAA0BA90C09
:1009E300120026FB601DAD09AF08120ABF0509E519
:1009F30009D39414500D7401250CF50CE4350BF553
:040A03000B80D7226B
:060210008B158A16891708
:10021600EF640160030203AB752101F522F523F5B6
:1002260024F525F526F527F5287F28900028E4F003
:10023600A3DFFC7F28900000E4F0A3DFFCAB15AA47
:1002460016A917120026D394C040037F02229000FD
:100256000A12003FB40104D2BC8002C2BC120026BE
:10026600FFE598543F4FF598EF64C06008EF64408F
:10027600600302032F9000021201AA7F007E607DB8
:10028600547C001200E08F1B8E1A8D198C18E4FF27
:10029600FE7D01FCAB1BAA1AA919A818C31201728C
:1002A60040037F0222C3E4951BF51BE4951AF51A59
:1002B60074019519F519E49518F518AB15AA16A940
:1002C6001790000112003FFB6401702CC28E538E02
:1002D600FE5389BF5389CF438E40AF1BAE1AAD196B
:1002E600AC1878081201838F8D851B8BC2AB53899E
:1002F600BF538FFDD28E8065EB64027029538EEF5B
:10030600438E01538EF7438E04AF1BAE1AAD19AC64
:100316001878081201838FD6851BD753AFFB538EEF
:10032600F7438E1080377F0222AB15AA16A9171243
:100336000026FF701390000812003FB40105438E9B
:1003460020801A538EDF8015EFB4801190000812BA
:10035600003FB40105438780800353877FAB15AA0E
:1003660016A91790000912003FB40104D2AC80020E
:10037600C2AC90000712003FB40104D29C8002C2B6
:100386009C90000B12003F54C0FFE5A2543F4FF56E
:10039600A290000C12003FB401054397108003534E
:0703A60097EF7F00227F02A8
:0103AD00222D
:100A590074282523F582E43400F583EFF005240595
:100A690023E523C394284003E4F523E525700575A0
:050A79002501D29922C5
:10000E00120026FF600C120A59740129F9E43AFA1B
:03001E0080EE224F
:030023000207C30E
:1007C300C0E0C083C082C0D075D000C00730982479
:1007D300C298E528701EE526C394284003752600B9
:1007E300AF26052674002FF582E43400F583E599DE
:1007F300F0752705309929C299E5226523601E7497
:10080300282522F582E43400F583E0F599152405C3
:1008130022E522C394284008752200800375250031
:0B082300D007D0D0D082D083D0E032CC
:1003AE008B108A118912EFD3940240037F0122EF42
:1003BE006003020500C28CAB10AA11A912900002B4
:1003CE0012003FB40104D2A98002C2A9900001120A
:1003DE00003FB40104D2B98002C2B9120026FED386
:1003EE00940340037F0222E58954FC4EF589900068
:1003FE000312003FFFB40103538E7FEF7003438E51
:10040E0080EFB4020543890480035389FBAB10AA25
:10041E0011A91290000412003FB40105438F018010
:10042E0003538FFE90000312003F7052900005128E
:10043E00006CAEF0FBAA06E4F9F8FF7E807D517CDD
:10044E00011208E0C374FF9FF58AAB10AA11A9121E
:10045E0090000512006CAEF0FBAA06E4F9F8FF7EE0
:10046E00807D517C011208E0C374FF9FFF74FF9ED4
:10047E00FEE49DFDE49CFC78081201968F8CAB1077
:10048E00AA11A91290000312003F6401705090004F
:10049E000512006CAEF0FBAA06E4F9F8FF7E207D93
:1004AE001CFC1208E0C374FF9FF58AAB10AA11A9B9
:1004BE001290000512006CAEF0FBAA06E4F9F8FFEC
:1004CE007E207D1CFC1208E0C374FF9FFF74FF9E0C
:1004DE00FEE49DFDE49CFC78081201968F8CAB1017
:1004EE00AA11A91290000712003FB40102D28C7F0C
:0504FE0000227F022234
:100507000A8D02000A000000F3FFFFFF08970300AF
:10051700A900000053FF0A3B53000A000000A2FF96
:10052700FFFF086152005E0000004FFF0A69650087
:100537000A00000090FFFFFF087D64000E01000025
:100547008DFE0AE06A000A0000008BFFFFFF0833F8
:1005570069004D01000049FF0A296C000A000000EC
:1005670089FFFFFF08456B001200000082FF0A9F0A
:1005770066000A0000008FFFFFFF14B3630014003A
:10058700000088FF0000E8030000C80000004FF8E3
:100597000AA968000A0000008DFFFFFF08C767006F
:1005A7004B0000004DFE0A7362000A00000093FF33
:1005B700FFFF088561000B00000093FE0ACF46008D
:1005C7000A000000AFFFFFFF07D947003200000015
:1005D700860A4D6F470A00000086FFFFFF0A570C87
:0905E700000A000000E9FFFFFF1B
:100A3300538EFD438E805389FB5389FC758CFE7561
:100A43008A80D2A9D28CC202C201C200E4900057AC
:060A5300F0900056F022B5
:03000B0002069D4D
:10069D00C0E0C083C082C0D075D000C0073001312A
:1006AD00900056E014F0703A7403F0900053E0148B
:1006BD00F0700E900050E0900052F0C201D2008018
:1006CD0021900050E0C313F030B017E04480F0806B
:1006DD001120B00ED2019000567404F090005374A6
:1006ED0009F030023A900057E014F070327403F0C4
:1006FD00900055E07012C2B1900054E0900051F09E
:10070D009000557409F08017900055E014F07006B4
:10071D00D2B1C2028009900051E0C313F092B1D062
:0A072D0007D0D0D082D083D0E03294
:03000000020737BD
:0C073700787FE4F6D8FD7581E902077EAA
:10002600BB010689828A83E0225002E722BBFE02D8
:09003600E32289828A83E493220B
:10003F00BB010CE58229F582E5833AF583E0225076
:10004F0006E92582F8E622BBFE06E92582F8E222C0
:0D005F00E58229F582E5833AF583E49322DA
:10006C00BB0110E58229F582E5833AF583E0F5F0D2
:10007C00A3E0225009E92582F886F008E622BBFEAF
:10008C000AE92582F8E2F5F008E222E5832AF583F5
:08009C00E993F5F0A3E99322BA
:1000A40075F008758200EF2FFFEE33FECD33CDCC13
:1000B40033CCC58233C5829BED9AEC99E582984096
:1000C4000CF582EE9BFEED9AFDEC99FC0FD5F0D673
:1000D400E4CEFBE4CDFAE4CCF9A88222B800C1B99D
:1000E4000059BA002DEC8BF084CFCECDFCE5F0CBDB
:1000F400F97818EF2FFFEE33FEED33FDEC33FCEB14
:1001040033FB10D703994004EB99FB0FD8E5E4F9CE
:10011400FA227818EF2FFFEE33FEED33FDEC33FCBB
:10012400C933C910D7059BE99A4007EC9BFCE99AAF
:10013400F90FD8E0E4C9FAE4CCFB2275F010EF2FF4
:10014400FFEE33FEED33FDCC33CCC833C810D707F4
:100154009BEC9AE899400AED9BFDEC9AFCE899F82F
:0E0164000FD5F0DAE4CDFBE4CCFAE4C8F922C2
:1008E000C2D5E830E70FB2D5E4C39BFBE49AFAE443
:1008F00099F9E498F8EC30E717B2D512091612000E
:10090000E0E4C39BFBE49AFAE499F9E498F88003E5
:100910001200E030D50DE4C39FFFE49EFEE49DFD90
:04092000E49CFC2235
:10017200EB9FF5F0EA9E42F0E99D42F0E89C45F0E3
:01018200225A
:10018300E8600FECC313FCED13FDEE13FEEF13FF5A
:03019300D8F1227E
:10019600E86010ECA2E713FCED13FDEE13FEEF137F
:0401A600FFD8F0226C
:1001AA00BB010DE58229F582E5833AF5830201E771
:1001BA005007E92582F80201DABBFE07E92582F831
:1001CA000201F3E58229F582E5833AF5830202000A
:100743000205F1E493A3F8E493A34003F68001F2D6
:1007530008DFF48029E493A3F85407240CC8C333B7
:10076300C4540F4420C8834004F456800146F6DF86
:10077300E4800B0102040810204080900503E47E0E
:10078300019360BCA3FF543F30E509541FFEE4937B
:10079300A360010ECF54C025E060A840B8E493A342
:1007A300FAE493A3F8E493A3C8C582C8CAC583CA6D
:1007B300F0A3C8C582C8CAC583CADFE9DEE780BE25
:0105F000000A
:0D01DA00E6FB08E6F908E6FA08E6CBF82295
:0C01E700E0F8A3E0F9A3E0FAA3E0FB229B
:0D01F300E2FB08E2F908E2FA08E2CBF8228C
:10020000E493F8740193F9740293FA740393FB2254
:00000001FF
