:100D64002D2D494E464F313A3132333435362D2DFF
:100D7400002D2D494E464F323A3635343332312D1B
:0F0D84002D006162636465660061626364656689
:100AE900015C0A20445D00011FF53139322E31368F
:100AF900382E32332E3100000000000000000000C3
:100B090000000000000000000000000000000000DC
:100B190000000000000000000000000000000000CC
:100B2900000000000000000000004100E200011088
:010B390000BB
:10082A00785CE6F521E4F522F523F524F52578260A
:10083A007C00FD7BFF7A0D798DFE7F061200F6E4BF
:10084A00F52CF52D120D93120E07120DBC120CC4C5
:10085A007F01120E617F02120E61C293D2AF7BFF3B
:10086A007A0D79647D017F01120D307BFF7A0D7953
:10087A00757D017F02120D30E4F522E510C3940A5A
:10088A005009E4FF120E8C051080F07A0079D1121B
:10089A00090B7F10120E8C7B007A0079267F0412D6
:1008AA0006318E2C8F2D782E7C007D007B007A00FD
:1008BA0079D97E007F081200F67536007537007503
:1008CA00385D1207377FFF120E8C782E7C007D0070
:1008DA007B007A0079E17E007F081200F67536FF08
:1008EA0075370D7538867539061209267FFF120E7F
:1008FA008C7A0079C912090B785CE6FF12000E8027
:01090A00A547
:10073700E4F539F53AF53BAF2E120DE27F05120EBF
:100747008CAF2F120DE27F05120E8CAF30120DE227
:100757007F05120E8CAF31120DE27F05120E8CAFA2
:1007670032120DE27F05120E8CAF33120DE27F05B8
:10077700120E8CAF34120DE27F05120E8CAF3512BC
:100787000DE27F05120E8CAB36AA37A9387F4412CB
:1007970006318E398F3AAB36AA37A93812011CFFBA
:1007A700120DE27F05120E8CAB36AA37A9389000DE
:1007B70001120135FF120DE27F05120E8CAB36AA2E
:1007C70037A938900002120135FF120DE27F05129A
:1007D7000E8CAB36AA37A938900003120135802159
:1007E700E53BC394405025AB36E5382404F9E4359E
:1007F70037FAAF3B053B7E00E92FF9EE3AFA1201D3
:100807001CFF120DE27F05120E8C80D4E539FF1212
:100817000DE27F05120E8CAF3AE53A120DE2E50BB9
:0208270070FC63
:0108290022AC
:10090B00782E7C007D007B007E007F081200F67540
:0B091B003600753700753800E4F53930
:10092600E4F53AAF2E120DE27F05120E8CAF2F12B0
:100936000DE27F05120E8CAF30120DE27F05120E0E
:100946008CAF31120DE27F05120E8CAF32120DE222
:100956007F05120E8CAF33120DE27F05120E8CAF9F
:1009660034120DE27F05120E8CAF35120DE27F05B3
:10097600120E8CAB36AA37A938AF39E4FCFDFE124D
:1009860006378E3B8F3CE53AC395395019AB360591
:1009960038E538AA377002053714F912011CFF1220
:1009A6000DE2053A80E0E53BFF120DE27F05120EEF
:0C09B6008CAF3CE53C120DE2E50B70FC40
:0109C2002212
:060631007E007D007C004C
:080637008F408E3F8D3E8C3D8B
:10063F00E4F544F543F542F5418B458A468947E495
:10064F007F01FEFDFCAB40AA3FA93EA83DD312029D
:10065F00A04048AB45E547F92402F547E546FA3493
:10066F0000F546120162FFAEF0E4FCFDE5442FF504
:10067F0044E5433EF543ED3542F542EC3541F54156
:10068F00C3E5409402F540E53F9400F53FE53E9405
:10069F0000F53EE53D9400F53D80A4AF40AE3FAD83
:1006AF003EAC3DEC4D4E4F6022AB45AA46A94712DA
:1006BF00011CFFE4FCFDFEE5442FF544EE3543F548
:1006CF0043ED3542F542EC3541F541E544FFE54355
:1006DF00FEE4FDFCC004C005C006C007AD42AC413E
:1006EF0078101202B1D003D002D001D000EF2BF559
:1006FF0044EE3AF543ED39F542EC38F541AF44AEEF
:10070F0043AD42FC78101202B1E5442FF544E543A6
:10071F003EF543E5423DF542E5413CF541AF44AE80
:07072F0043AD42FC120293EE
:0107360022A0
:100D9300752E40752F02E4F53375324BF531F5307E
:100DA300753501F536753701F538753940F53AFB78
:090DB3007A00792E7F0102033E53
:100E0700E4F52EF52F753001F53175320175330391
:0F0E17007534E8753501FB7A00792EFF0204DC93
:0F0E8C007DA57C06ED1D70011C144C70F7DFF185
:010E9B002234
:02000E00AE073B
:0F001000E4FBEBC39E50087F64120E8C0B80F351
:01001F0022BE
:100E7A00E4FFFE30A70B0FBF00010EBE13F5BF88BB
:010E8A00F275
:010E8B002244
:100CFC00C2918FA000000000000000000000000066
:100D0C000000000000000000D29000000000000075
:100D1C000000000000000000000000000000C29075
:040D2C0075A0FF228D
:100C2800AD07C292D29175A0FF000000000000003D
:100C380000000000000000000000000000D2901238
:100C48000E7AC290C2918DA0000000000000000042
:100C5800000000000000000000000000D29000002A
:100C6800000000000000000000000000000000007C
:080C78000000C29075A0FF22EC
:100BCE00AD07C292D29175A0FF0000000000000098
:100BDE0000000000000000000000000000D2901293
:100BEE000E7AC290C291D2928DA000000000000039
:100BFE000000000000000000000000000000D29085
:100C0E0000000000000000000000000000000000D6
:0A0C1E0000000000C29075A0FF2244
:100CC400C290C292C2917F64120E8C7F30120CFCCF
:100CD4007F0A120E8C7F30120CFC7F0A120E8C7F5E
:100CE40038120CFC7F06120E8C7F01120C287F0632
:080CF400120C287F0C020C28F1
:100E4500AC05AB07BB0108EC144480FF120C28BBB2
:0C0E55000209EC243F4480FF120C28220C
:100E6100EF6015D3940250107D01120E45E4FC7F12
:080E710020120BCE0CBC10F79F
:010E79002256
:100E2600AE07AA03EE6017D394025012ED600FD3FB
:0F0E36009410500AAF06120E45AF02120BCE22D7
:100D30008F2E8D2F8B308A318932AB30AA31A93278
:100D400012011CFB601DAD2FAF2E120E26052FE5E4
:100D50002FD39414500D74012532F532E43531F55A
:040D60003180D722E5
:06033E008B3B8A3C893D67
:10034400EF640160030204D9750801F509F50AF5A3
:100354000BF50CF50DF50EF50F7F64900064E4F0D9
:10036400A3DFFC7F64900000E4F0A3DFFCAB3BAAB6
:100374003CA93D12011CD394C040037F022290008B
:100384000A120135B40104D2BC8002C2BC12011CA1
:10039400FFE598543F4FF598EF64C06008EF644060
:1003A400600302045D9000021202D87F007E607D2B
:1003B400547C001202018F418E408D3F8C3EE4FF3D
:1003C400FE7D01FCAB41AA40A93FA83EC31202A096
:1003D40040037F0222C3E49541F541E49540F54092
:1003E4007401953FF53FE4953EF53EAB3BAA3CA92D
:1003F4003D900001120135FB6401702CC28E538EB6
:10040400FE5389BF5389CF438E40AF41AE40AD3FC9
:10041400AC3E78081202B18F8D85418BC2AB5389F3
:10042400BF538FFDD28E8065EB64027029538EEF2B
:10043400438E01538EF7438E04AF41AE40AD3FACC3
:100444003E78081202B18FD68541D753AFFB538E45
:10045400F7438E1080377F0222AB3BAA3CA93D12A2
:10046400011CFF7013900008120135B40105438E7E
:1004740020801A538EDF8015EFB48011900008128B
:100484000135B40105438780800353877FAB3BAAC2
:100494003CA93D900009120135B40104D2AC80029C
:1004A400C2AC900007120135B40104D29C8002C290
:1004B4009C90000B12013554C0FFE5A2543F4FF548
:1004C400A290000C120135B4010543971080035328
:0704D40097EF7F00227F0279
:0104DB0022FE
:100DE2007464250AF582E43400F583EFF0050B05FF
:100DF2000AE50AC394644003E4F50AE50C7005753C
:050E02000C01D2992251
:03002300020B636A
:100B6300C0E0C083C082C0D075D000C007309824D5
:100B7300C298E50F701EE50DC394644003750D0024
:100B8300AF0D050D74002FF582E43400F583E5996C
:100B9300F0750E05309929C299E509650A601E743E
:100BA300642509F582E43400F583E0F599150B0516
:100BB30009E509C3946440087509008003750C00B6
:0B0BC300D007D0D0D082D083D0E03229
:1004DC008B368A378938EFD3940240037F0122EFA1
:1004EC00600302062EC28CAB36AA37A938900002E4
:1004FC00120135B40104D2A98002C2A990000112E4
:10050C000135B40104D2B98002C2B912011CFED368
:10051C00940340037F0222E58954FC4EF589900038
:10052C0003120135FFB40103538E7FEF7003438E2A
:10053C0080EFB4020543890480035389FBAB36AAD0
:10054C0037A938900004120135B40105438F01809E
:10055C0003538FFE90000312013570529000051268
:10056C00018DAEF0FBAA06E4F9F8FF7E807D517C8C
:10057C0001120C80C374FF9FF58AAB36AA37A938D9
:10058C0090000512018DAEF0FBAA06E4F9F8FF7E8F
:10059C00807D517C01120C80C374FF9FFF74FF9E01
:1005AC00FEE49DFDE49CFC78081202C48F8CAB36F3
:1005BC00AA37A938900003120135640170509000DD
:1005CC000512018DAEF0FBAA06E4F9F8FF7E207D42
:1005DC001CFC120C80C374FF9FF58AAB36AA37A99A
:1005EC003890000512018DAEF0FBAA06E4F9F8FF75
:1005FC007E207D1CFC120C80C374FF9FFF74FF9E39
:10060C00FEE49DFDE49CFC78081202C48F8CAB3692
:10061C00AA37A938900007120135B40102D28C7F99
:05062C0000227F022204
:100B3A0008D105000A000000F0FF08D945004E0060
:100B4A0000006CFF08C944000A000000B1FF08E178
:080B5A00060010000000E9FF95
:100DBC00538EFD438E805389FB5389FC758CFE75D5
:100DCC008A80D2A9D28CC202C201C200E49000CFA8
:060DDC00F09000CEF022B1
:03000B000209C324
:1009C300C0E0C083C082C0D075D000C00730013101
:1009D3009000CEE014F0703A7403F09000CBE01472
:1009E300F0700E9000C8E09000CAF0C201D20080FF
:1009F300219000C8E0C313F030B017E04480F080CA
:100A03001120B00ED2019000CE7404F09000CB748C
:100A130009F030023A9000CFE014F070327403F022
:100A23009000CDE07012C2B19000CCE09000C9F00C
:100A33009000CD7409F080179000CDE014F070069B
:100A4300D2B1C20280099000C9E0C313F092B1D0C1
:0A0A530007D0D0D082D083D0E0326B
:03000000020A5D94
:0C0A5D00787FE4F6D8FD7581E8020AA459
:10002600E709F608DFFA8046E709F208DFFA803EBC
:1000360088828C83E709F0A3DFFA8032E309F608A9
:10004600DFFA8078E309F208DFFA807088828C8311
:10005600E309F0A3DFFA806489828A83E0A3F608C5
:10006600DFFA805889828A83E0A3F208DFFA804C9F
:1000760080D280FA80C680D4806980F28033801076
:1000860080A680EA809A80A880DA80E280CA8033DF
:1000960089828A83ECFAE493A3C8C582C8CCC58357
:1000A600CCF0A3C8C582C8CCC583CCDFE9DEE78027
:1000B6000D89828A83E493A3F608DFF9ECFAA9F0A6
:1000C600EDFB2289828A83ECFAE0A3C8C582C8CCFC
:1000D600C583CCF0A3C8C582C8CCC583CCDFEADE15
:1000E600E880DB89828A83E493A3F208DFF980CC77
:1000F60088F0EF60010E4E60C388F0ED2402B40470
:100106000050B9F582EB2402B4040050AF23234516
:06011600822390007673C5
:10011C00BB010689828A83E0225002E722BBFE02E1
:09012C00E32289828A83E4932214
:10013500BB010CE58229F582E5833AF583E022507F
:1001450006E92582F8E622BBFE06E92582F8E222C9
:0D015500E58229F582E5833AF583E49322E3
:10016200BB010A89828A83E0F5F0A3E02250068768
:10017200F009E71922BBFE07E3F5F009E31922892A
:0B018200828A83E493F5F0740193225D
:10018D00BB0110E58229F582E5833AF583E0F5F0B0
:10019D00A3E0225009E92582F886F008E622BBFE8D
:1001AD000AE92582F8E2F5F008E222E5832AF583D3
:0801BD00E993F5F0A3E9932298
:1001C50075F008758200EF2FFFEE33FECD33CDCCF1
:1001D50033CCC58233C5829BED9AEC99E582984074
:1001E5000CF582EE9BFEED9AFDEC99FC0FD5F0D651
:1001F500E4CEFBE4CDFAE4CCF9A88222B800C1B97B
:100205000059BA002DEC8BF084CFCECDFCE5F0CBB8
:10021500F97818EF2FFFEE33FEED33FDEC33FCEBF1
:1002250033FB10D703994004EB99FB0FD8E5E4F9AC
:10023500FA227818EF2FFFEE33FEED33FDEC33FC99
:10024500C933C910D7059BE99A4007EC9BFCE99A8D
:10025500F90FD8E0E4C9FAE4CCFB2275F010EF2FD2
:10026500FFEE33FEED33FDCC33CCC833C810D707D2
:100275009BEC9AE899400AED9BFDEC9AFCE899F80D
:0E0285000FD5F0DAE4CDFBE4CCFAE4C8F922A0
:100C8000C2D5E830E70FB2D5E4C39BFBE49AFAE49F
:100C900099F9E498F8EC30E717B2D5120CB61202C5
:100CA00001E4C39BFBE49AFAE499F9E498F8800321
:100CB00012020130D50DE4C39FFFE49EFEE49DFDCA
:040CC000E49CFC2292
:0D029300CFF4CFCEF4CECDF4CDCCF4CC2200
:1002A000EB9FF5F0EA9E42F0E99D42F0E89C45F0B4
:0102B000222B
:1002B100E8600FECC313FCED13FDEE13FEEF13FF2B
:0302C100D8F1224F
:1002C400E86010ECA2E713FCED13FDEE13FEEF1350
:0402D400FFD8F0223D
:1002D800BB010DE58229F582E5833AF58302031512
:1002E8005007E92582F8020308BBFE07E92582F8D2
:1002F800020321E58229F582E5833AF58302032E7C
:100A690002082AE493A3F8E493A34003F68001F271
:100A790008DFF48029E493A3F85407240CC8C3338E
:100A8900C4540F4420C8834004F456800146F6DF5D
:100A9900E4800B0102040810204080900AE9E47EFA
:100AA900019360BCA3FF543F30E509541FFEE49352
:100AB900A360010ECF54C025E060A840B8E493A319
:100AC900FAE493A3F8E493A3C8C582C8CAC583CA44
:100AD900F0A3C8C582C8CAC583CADFE9DEE780BEFC
:010B62000092
:0D030800E6FB08E6F908E6FA08E6CBF82265
:0C031500E0F8A3E0F9A3E0FAA3E0FB226B
:0D032100E2FB08E2F908E2FA08E2CBF8225C
:10032E00E493F8740193F9740293FA740393FB2225
:00000001FF
