:100972002D2D494E464F313A3132333435362D2DF5
:10098200002D2D494E464F323A3635343332312D11
:020992002D0036
:0405030002240000CE
:1006E8001209211209941208817F011209EE7F0272
:1006F8001209EED2AF7BFF7A0979727D017F011270
:1007080008ED7BFF7A0979837D017F021208ED7A73
:1007180000794A12083E7A0079CC12083E7B007AAA
:100728000079707D0A1208427B007A0079A67D0A5A
:100738001208427B007A0079547D0A12084280FE32
:04083E007B007D0AB4
:080842008B088A09890A8D0B5D
:10084A00E4F50CF50DC3E50D950BE50C940050226B
:10085A00AB08AA09A90A120026FF12094D7401253C
:10086A000AF50AE43509F509050DE50D70D7050CF9
:06087A0080D3E51F70FCB5
:010880002255
:03000B00020A29BD
:0D0A2900C0E00525E52570020524D0E0326F
:10092100750840750902750D00750CC2750B0175CE
:100931000A00750F01E4F510751101F512751340E8
:0C094100F514FB7A0079087F0102021017
:10099400E4F508F509750A01F50B750C01750D03ED
:0F09A400750EE8750F01FB7A007908FF0203AEAC
:0F0A19007DA57C06ED1D70011C144C70F7DFF1FC
:010A280022AB
:100A0700E4FFFE30A70B0FBF00010EBE13F5BF8832
:010A1700F2EC
:010A180022BB
:1008B900C2918FA0000000000000000000000000AD
:1008C9000000000000000000D290000000000000BD
:1008D9000000000000000000000000000000C290BD
:0408E90075A0FF22D5
:1007A200AD07C292D29175A0FF00000000000000C8
:1007B20000000000000000000000000000D29012C3
:1007C2000A07C290C2918DA0000000000000000044
:1007D200000000000000000000000000D2900000B5
:1007E2000000000000000000000000000000000007
:0807F2000000C29075A0FF2277
:10074800AD07C292D29175A0FF0000000000000022
:1007580000000000000000000000000000D290121D
:100768000A07C290C291D2928DA00000000000003A
:100778000000000000000000000000000000D2900F
:100788000000000000000000000000000000000061
:0A07980000000000C29075A0FF22CF
:10088100C290C292C2917F64120A197F301208B9D4
:100891007F0A120A197F301208B97F0A120A197FDA
:1008A100381208B97F06120A197F011207A27F06C2
:0808B1001207A27F0C0207A24E
:1009D200AC05AB07BB0108EC144480FF1207A2BBB5
:0C09E2000209EC243F4480FF1207A2220F
:1009EE00EF6015D3940250107D011209D2E4FC7F02
:0809FE00201207480CBC10F7A1
:010A060022CD
:1009B300AE07AA03EE6017D394025012ED600FD373
:0F09C3009410500AAF061209D2AF021207482251
:1008ED008F088D098B0A8A0B890CAB0AAA0BA90CF0
:1008FD00120026FB601DAD09AF081209B30509E50D
:10090D0009D39414500D7401250CF50CE4350BF539
:04091D000B80D72252
:060210008B158A16891708
:10021600EF640160030203AB751C01F51DF51EF5C5
:100226001FF520F521F522F5237F28900028E4F01C
:10023600A3DFFC7F28900000E4F0A3DFFCAB15AA47
:1002460016A917120026D394C040037F02229000FD
:100256000A12003FB40104D2BC8002C2BC120026BE
:10026600FFE598543F4FF598EF64C06008EF64408F
:10027600600302032F9000021201AA7F007E607DB8
:10028600547C001200E08F1B8E1A8D198C18E4FF27
:10029600FE7D01FCAB1BAA1AA919A818C31201728C
:1002A60040037F0222C3E4951BF51BE4951AF51A59
:1002B60074019519F519E49518F518AB15AA16A940
:1002C6001790000112003FFB6401702CC28E538E02
:1002D600FE5389BF5389CF438E40AF1BAE1AAD196B
:1002E600AC1878081201838F8D851B8BC2AB53899E
:1002F600BF538FFDD28E8065EB64027029538EEF5B
:10030600438E01538EF7438E04AF1BAE1AAD19AC64
:100316001878081201838FD6851BD753AFFB538EEF
:10032600F7438E1080377F0222AB15AA16A9171243
:100336000026FF701390000812003FB40105438E9B
:1003460020801A538EDF8015EFB4801190000812BA
:10035600003FB40105438780800353877FAB15AA0E
:1003660016A91790000912003FB40104D2AC80020E
:10037600C2AC90000712003FB40104D29C8002C2B6
:100386009C90000B12003F54C0FFE5A2543F4FF56E
:10039600A290000C12003FB401054397108003534E
:0703A60097EF7F00227F02A8
:0103AD00222D
:10094D007428251EF582E43400F583EFF0051F05AC
:10095D001EE51EC394284003E4F51EE520700575C1
:05096D002001D29922D7
:10000E00120026FF600C12094D740129F9E43AFA28
:03001E0080EE224F
:0300230002067D55
:10067D00C0E0C083C082C0D075D000C007309824C0
:10068D00C298E523701EE521C3942840037521000F
:10069D00AF21052174002FF582E43400F583E5992F
:1006AD00F0752205309929C299E51D651E601E74ED
:1006BD0028251DF582E43400F583E0F599151F0515
:1006CD001DE51DC394284008751D0080037520008D
:0B06DD00D007D0D0D082D083D0E03214
:1003AE008B108A118912EFD3940240037F0122EF42
:1003BE006003020500C28CAB10AA11A912900002B4
:1003CE0012003FB40104D2A98002C2A9900001120A
:1003DE00003FB40104D2B98002C2B9120026FED386
:1003EE00940340037F0222E58954FC4EF589900068
:1003FE000312003FFFB40103538E7FEF7003438E51
:10040E0080EFB4020543890480035389FBAB10AA25
:10041E0011A91290000412003FB40105438F018010
:10042E0003538FFE90000312003F7052900005128E
:10043E00006CAEF0FBAA06E4F9F8FF7E807D517CDD
:10044E00011207FAC374FF9FF58AAB10AA11A91205
:10045E0090000512006CAEF0FBAA06E4F9F8FF7EE0
:10046E00807D517C011207FAC374FF9FFF74FF9EBB
:10047E00FEE49DFDE49CFC78081201968F8CAB1077
:10048E00AA11A91290000312003F6401705090004F
:10049E000512006CAEF0FBAA06E4F9F8FF7E207D93
:1004AE001CFC1207FAC374FF9FF58AAB10AA11A9A0
:1004BE001290000512006CAEF0FBAA06E4F9F8FFEC
:1004CE007E207D1CFC1207FAC374FF9FFF74FF9EF3
:1004DE00FEE49DFDE49CFC78081201968F8CAB1017
:1004EE00AA11A91290000712003FB40102D28C7F0C
:0504FE0000227F022234
:100507000A8A02000A000000F3FFFFFF08940300B5
:10051700A900000053FF0A3853000A000000A2FF99
:10052700FFFF085E52005E0000004FFF0A6665008D
:100537000A00000090FFFFFF087A64000E01000028
:100547008DFE0ADD6A000A0000008BFFFFFF0830FE
:1005570069004D01000049FF0A266C000A000000EF
:1005670089FFFFFF08426B001200000082FF0A9C10
:1005770066000A0000008FFFFFFF14B0630014003D
:10058700000088FF0000E8030000C80000004FF8E3
:100597000AA668000A0000008DFFFFFF08C4670075
:1005A7004B0000004DFE0A7062000A00000093FF36
:1005B700FFFF088261000B00000093FE0ACC460093
:1005C7000A000000AFFFFFFF07D647003200000018
:1005D700860A4A6F470A00000086FFFFFF0A540C8D
:0905E700000A000000E9FFFFFF1B
:030000000205F105
:0C05F100787FE4F6D8FD7581E60206383C
:10002600BB010689828A83E0225002E722BBFE02D8
:09003600E32289828A83E493220B
:10003F00BB010CE58229F582E5833AF583E0225076
:10004F0006E92582F8E622BBFE06E92582F8E222C0
:0D005F00E58229F582E5833AF583E49322DA
:10006C00BB0110E58229F582E5833AF583E0F5F0D2
:10007C00A3E0225009E92582F886F008E622BBFEAF
:10008C000AE92582F8E2F5F008E222E5832AF583F5
:08009C00E993F5F0A3E99322BA
:1000A40075F008758200EF2FFFEE33FECD33CDCC13
:1000B40033CCC58233C5829BED9AEC99E582984096
:1000C4000CF582EE9BFEED9AFDEC99FC0FD5F0D673
:1000D400E4CEFBE4CDFAE4CCF9A88222B800C1B99D
:1000E4000059BA002DEC8BF084CFCECDFCE5F0CBDB
:1000F400F97818EF2FFFEE33FEED33FDEC33FCEB14
:1001040033FB10D703994004EB99FB0FD8E5E4F9CE
:10011400FA227818EF2FFFEE33FEED33FDEC33FCBB
:10012400C933C910D7059BE99A4007EC9BFCE99AAF
:10013400F90FD8E0E4C9FAE4CCFB2275F010EF2FF4
:10014400FFEE33FEED33FDCC33CCC833C810D707F4
:100154009BEC9AE899400AED9BFDEC9AFCE899F82F
:0E0164000FD5F0DAE4CDFBE4CCFAE4C8F922C2
:1007FA00C2D5E830E70FB2D5E4C39BFBE49AFAE42A
:10080A0099F9E498F8EC30E717B2D51208301200DB
:10081A00E0E4C39BFBE49AFAE499F9E498F88003CC
:10082A001200E030D50DE4C39FFFE49EFEE49DFD77
:04083A00E49CFC221C
:10017200EB9FF5F0EA9E42F0E99D42F0E89C45F0E3
:01018200225A
:10018300E8600FECC313FCED13FDEE13FEEF13FF5A
:03019300D8F1227E
:10019600E86010ECA2E713FCED13FDEE13FEEF137F
:0401A600FFD8F0226C
:1001AA00BB010DE58229F582E5833AF5830201E771
:1001BA005007E92582F80201DABBFE07E92582F831
:1001CA000201F3E58229F582E5833AF5830202000A
:1005FD000206E8E493A3F8E493A34003F68001F226
:10060D0008DFF48029E493A3F85407240CC8C333FE
:10061D00C4540F4420C8834004F456800146F6DFCD
:10062D00E4800B0102040810204080900503E47E55
:10063D00019360BCA3FF543F30E509541FFEE493C2
:10064D00A360010ECF54C025E060A840B8E493A389
:10065D00FAE493A3F8E493A3C8C582C8CAC583CAB4
:10066D00F0A3C8C582C8CAC583CADFE9DEE780BE6C
:0105F000000A
:0D01DA00E6FB08E6F908E6FA08E6CBF82295
:0C01E700E0F8A3E0F9A3E0FAA3E0FB229B
:0D01F300E2FB08E2F908E2FA08E2CBF8228C
:10020000E493F8740193F9740293FA740393FB2254
:00000001FF
