:10081C002D2D494E464F313A3132333435362D2D4C
:10082C00002D2D494E464F323A3635343332312D68
:02083C002D008D
:0400030002230000D4
:1006EC001207CE12083E12072E7F011208987F02C5
:1006FC00120898D2AF7BFF7A08791C7D017F01121A
:10070C00079A7BFF7A08792D7D017F0212079AE503
:10071C0024B4E8FBE523B403F6E4F523F524B2A6F0
:02072C0080ED5E
:03000B000208D315
:0D08D300C0E00524E52470020523D0E032CA
:1007CE00750840750902750D00750CC2750B017523
:1007DE000A00750F01E4F510751101F512F513F508
:0B07EE0014FB7A0079087F0102021062
:10083E00E4F508F509750A01F50B750C01750D0344
:0F084E00750EE8750F01FB7A007908FF0203AC05
:0F08C3007DA57C06ED1D70011C144C70F7DFF154
:0108D2002203
:1008B100E4FFFE30A70B0FBF00010EBE13F5BF888A
:0108C100F244
:0108C2002213
:10076600C2918FA000000000000000000000000001
:100776000000000000000000D29000000000000011
:100786000000000000000000000000000000C29011
:0407960075A0FF2229
:10065000AD07C292D29175A0FF000000000000001B
:1006600000000000000000000000000000D2901216
:1006700008B1C290C2918DA00000000000000000EF
:10068000000000000000000000000000D290000008
:10069000000000000000000000000000000000005A
:0806A0000000C29075A0FF22CA
:1005F600AD07C292D29175A0FF0000000000000076
:1006060000000000000000000000000000D2901270
:1006160008B1C290C291D2928DA0000000000000E5
:100626000000000000000000000000000000D29062
:1006360000000000000000000000000000000000B4
:0A06460000000000C29075A0FF2222
:10072E00C290C292C2917F641208C37F30120766D4
:10073E007F0A1208C37F301207667F0A1208C37F32
:10074E00381207667F061208C37F011206507F0615
:08075E001206507F0C02065048
:10087C00AC05AB07BB0108EC144480FF120650BB5F
:0C088C000209EC243F4480FF12065022B9
:10089800EF6015D3940250107D0112087CE4FC7FB0
:0808A800201205F60CBC10F74C
:0108B0002225
:10085D00AE07AA03EE6017D394025012ED600FD3CA
:0F086D009410500AAF0612087CAF021205F62253
:10079A008F088D098B0A8A0B890CAB0AAA0BA90C44
:1007AA00120026FB601DAD09AF0812085D0509E5B8
:1007BA0009D39414500D7401250CF50CE4350BF58E
:0407CA000B80D722A7
:060210008B158A16891708
:10021600EF640160030203A9751C01F51DF51EF5C7
:100226001FF520F521F5227F80900080E4F0A3DF02
:10023600FC7F80900000E4F0A3DFFCAB15AA16A9B2
:1002460017120026D394C040037F022290000A12A0
:10025600003FB40104D2BC8002C2BC120026FFE5F6
:1002660098543F4FF598EF64C06008EF6440600310
:1002760002032D9000021201AA7F007E607D547C4D
:10028600001200E08F1B8E1A8D198C18E4FFFE7D7C
:1002960001FCAB1BAA1AA919A818C31201724003C4
:1002A6007F0222C3E4951BF51BE4951AF51A740127
:1002B6009519F519E49518F518AB15AA16A917900E
:1002C600000112003FFB6401702CC28E538EFE5358
:1002D60089BF5389CF438E40AF1BAE1AAD19AC18F8
:1002E60078081201838F8D851B8BC2AB5389BF5350
:1002F6008FFDD28E8065EB64027029538EEF438E9C
:1003060001538EF7438E04AF1BAE1AAD19AC1878A5
:10031600081201838FD6851BD753AFFB538EF74345
:100326008E1080377F0222AB15AA16A91712002657
:10033600FF701390000812003FB40105438E208021
:100346001A538EDF8015EFB4801190000812003F1B
:10035600B40105438780800353877FAB15AA16A98E
:100366001790000912003FB40104D2AC8002C2AC5F
:1003760090000712003FB40104D29C8002C29C90F8
:10038600000B12003F54C0FFE5A2543F4FF5A29068
:10039600000C12003FB4010543971080035397EFFA
:0503A6007F00227F0230
:0103AB00222F
:1007F9007480251EF582E43400F583EFF0051EE5CB
:100809001EC394804003E4F51EE51F7005751F01A2
:03081900D299224F
:10000E00120026FF600C1207F9740129F9E43AFA7E
:03001E0080EE224F
:0300230002058D46
:10058D00C0E0C083C082C0D075D000C007309824B1
:10059D00C298E522701EE520C394804003752000AB
:1005AD00AF20052074002FF582E43400F583E59922
:1005BD00F0752105309927C299E51D651E601C74E3
:1005CD0080251DF582E43400F583E0F599051DE5E0
:1005DD001DC394804008751D008003751F00D00752
:0905ED00D0D0D082D083D0E032DE
:1003AC008B108A118912EFD3940240037F0122EF44
:1003BC0060030204FEC28CAB10AA11A912900002B9
:1003CC0012003FB40104D2A98002C2A9900001120C
:1003DC00003FB40104D2B98002C2B9120026FED388
:1003EC00940340037F0222E58954FC4EF58990006A
:1003FC000312003FFFB40103538E7FEF7003438E53
:10040C0080EFB4020543890480035389FBAB10AA27
:10041C0011A91290000412003FB40105438F018012
:10042C0003538FFE90000312003F70529000051290
:10043C00006CAEF0FBAA06E4F9F8FF7E807D517CDF
:10044C00011206A8C374FF9FF58AAB10AA11A9125A
:10045C0090000512006CAEF0FBAA06E4F9F8FF7EE2
:10046C00807D517C011206A8C374FF9FFF74FF9E10
:10047C00FEE49DFDE49CFC78081201968F8CAB1079
:10048C00AA11A91290000312003F64017050900051
:10049C000512006CAEF0FBAA06E4F9F8FF7E207D95
:1004AC001CFC1206A8C374FF9FF58AAB10AA11A9F5
:1004BC001290000512006CAEF0FBAA06E4F9F8FFEE
:1004CC007E207D1CFC1206A8C374FF9FFF74FF9E48
:1004DC00FEE49DFDE49CFC78081201968F8CAB1019
:1004EC00AA11A91290000712003FB40102D28C7F0E
:0504FC0000227F022236
:03000000020501F5
:0C050100787FE4F6D8FD758124020548DF
:10002600BB010689828A83E0225002E722BBFE02D8
:09003600E32289828A83E493220B
:10003F00BB010CE58229F582E5833AF583E0225076
:10004F0006E92582F8E622BBFE06E92582F8E222C0
:0D005F00E58229F582E5833AF583E49322DA
:10006C00BB0110E58229F582E5833AF583E0F5F0D2
:10007C00A3E0225009E92582F886F008E622BBFEAF
:10008C000AE92582F8E2F5F008E222E5832AF583F5
:08009C00E993F5F0A3E99322BA
:1000A40075F008758200EF2FFFEE33FECD33CDCC13
:1000B40033CCC58233C5829BED9AEC99E582984096
:1000C4000CF582EE9BFEED9AFDEC99FC0FD5F0D673
:1000D400E4CEFBE4CDFAE4CCF9A88222B800C1B99D
:1000E4000059BA002DEC8BF084CFCECDFCE5F0CBDB
:1000F400F97818EF2FFFEE33FEED33FDEC33FCEB14
:1001040033FB10D703994004EB99FB0FD8E5E4F9CE
:10011400FA227818EF2FFFEE33FEED33FDEC33FCBB
:10012400C933C910D7059BE99A4007EC9BFCE99AAF
:10013400F90FD8E0E4C9FAE4CCFB2275F010EF2FF4
:10014400FFEE33FEED33FDCC33CCC833C810D707F4
:100154009BEC9AE899400AED9BFDEC9AFCE899F82F
:0E0164000FD5F0DAE4CDFBE4CCFAE4C8F922C2
:1006A800C2D5E830E70FB2D5E4C39BFBE49AFAE47D
:1006B80099F9E498F8EC30E717B2D51206DE120083
:1006C800E0E4C39BFBE49AFAE499F9E498F8800320
:1006D8001200E030D50DE4C39FFFE49EFEE49DFDCB
:0406E800E49CFC2270
:10017200EB9FF5F0EA9E42F0E99D42F0E89C45F0E3
:01018200225A
:10018300E8600FECC313FCED13FDEE13FEEF13FF5A
:03019300D8F1227E
:10019600E86010ECA2E713FCED13FDEE13FEEF137F
:0401A600FFD8F0226C
:1001AA00BB010DE58229F582E5833AF5830201E771
:1001BA005007E92582F80201DABBFE07E92582F831
:1001CA000201F3E58229F582E5833AF5830202000A
:10050D000206ECE493A3F8E493A34003F68001F212
:10051D0008DFF48029E493A3F85407240CC8C333EF
:10052D00C4540F4420C8834004F456800146F6DFBE
:10053D00E4800B0102040810204080900003E47E4B
:10054D00019360BCA3FF543F30E509541FFEE493B3
:10055D00A360010ECF54C025E060A840B8E493A37A
:10056D00FAE493A3F8E493A3C8C582C8CAC583CAA5
:10057D00F0A3C8C582C8CAC583CADFE9DEE780BE5D
:0100070000F8
:0D01DA00E6FB08E6F908E6FA08E6CBF82295
:0C01E700E0F8A3E0F9A3E0FAA3E0FB229B
:0D01F300E2FB08E2F908E2FA08E2CBF8228C
:10020000E493F8740193F9740293FA740393FB2254
:00000001FF
